:020000040800F2
:10000000E00F00209D0100086147000897330008B9
:1000100000000000000000000000000000000000E0
:10002000000000000000000000000000654700081C
:10003000000000000000000063470008B15C0008F9
:10004000AF01000800000000AF010008AF01000888
:10005000AF010008450F0008550F00085F0F0008AA
:1000600000000000AF010008AF010008AF01000868
:10007000AF010008CD5C0008AF01000800000000DF
:10008000AF0100080000000000000000BD5C000897
:1000900000000000AF010008AF010008AF01000838
:1000A000AF010008AF010008AF0100089567000824
:1000B000AF01000800000000000000000000000088
:1000C00000F002F800F03EF812A030C808382418FA
:1000D0002D18AC4201D100F035F80FCCA246AB464A
:1000E0000CA730CF2D1B083F3F197C427F1E544484
:1000F0002D090426F441641EAC4201D300F022F81D
:100100000126334200D0FB1A3343984754465D46DC
:10011000DFE70000707B0000907B0000704700006C
:100120000023002400250026103A01D378C1FBD813
:10013000520700D330C100D50B6070471FB51FBDFB
:1001400010B510BD00F0C9F91146FFF7F7FF06F032
:1001500061FD00F0E1F903B4FFF7F2FF03BC00F02A
:10016000E7F9000070B505460C46164602E00FCCD4
:100170000FC5103E102EFAD2082E02D303CC03C5B1
:10018000083E042E07D301CC01C5361F03E02178B9
:100190002970641C6D1C761EF9D270BD074880471B
:1001A00007480047FEE7FEE7FEE7FEE7FEE7FEE75B
:1001B00004480549054A064B70470000B95C000831
:1001C000C1000008E0090020E00F0020E00B002043
:1001D000E00B002030B5441C03E00178401C0029EE
:1001E0000DD08107F9D10B4BDD0104C8D11A914321
:1001F0002940FAD0001B0A0603D0C01E30BD001BE8
:1002000030BD0A0401D0801E30BD0902FCD0401E62
:1002100030BD000001010101F8B5042A2CD3830789
:1002200012D00B78491C0370401C521E83070BD060
:100230000B78491C0370401C521E830704D00B78B6
:10024000491C0370401C521E8B079B0F05D0C91A16
:10025000DF002023DE1B08C90AE0FFF783FFF8BD9B
:100260001D4608C9FD401C46B4402C4310C0121F57
:10027000042AF5D2F308C91A521EF0D40B78491C8F
:100280000370401C521EEAD40B78491C0370401CBA
:10029000012AE4D409780170F8BD01E004C0091F07
:1002A0000429FBD28B0701D50280801CC90700D02E
:1002B0000270704700290BD0C30702D00270401CA7
:1002C000491E022904D3830702D50280801C891E9F
:1002D000E3E70022EEE70022DFE700000022030947
:1002E0008B4273D3030A8B4258D3030B8B423CD30C
:1002F000030C8B4221D312E003460B437FD4002230
:1003000043088B4274D303098B425FD3030A8B42A9
:1003100044D3030B8B4228D3030C8B420DD3090229
:10032000FF2212BA030C8B4202D31212090265D0CB
:10033000030B8B4219D300E0090AC30B8B4201D394
:10034000CB03C01A5241830B8B4201D38B03C01ADB
:100350005241430B8B4201D34B03C01A5241030B52
:100360008B4201D30B03C01A5241C30A8B4201D303
:10037000CB02C01A5241830A8B4201D38B02C01AAE
:100380005241430A8B4201D34B02C01A5241030A25
:100390008B4201D30B02C01A5241CDD2C3098B420A
:1003A00001D3CB01C01A524183098B4201D38B0187
:1003B000C01A524143098B4201D34B01C01A52412A
:1003C00003098B4201D30B01C01A5241C3088B426F
:1003D00001D3CB00C01A524183088B4201D38B005A
:1003E000C01A524143088B4201D34B00C01A5241FC
:1003F000411A00D201465241104670475DE0CA0FD3
:1004000000D04942031000D3404253409C46002292
:1004100003098B422DD3030A8B4212D38901FC229C
:1004200012BA030A8B420CD3890192118B4208D372
:10043000890192118B4204D389013AD0921100E0D4
:100440008909C3098B4201D3CB01C01A52418309E8
:100450008B4201D38B01C01A524143098B4201D315
:100460004B01C01A524103098B4201D30B01C01A40
:100470005241C3088B4201D3CB00C01A52418308BA
:100480008B4201D38B00C01A5241D9D243088B4210
:1004900001D34B00C01A5241411A00D201465241C9
:1004A000104663465B1001D34042002B00D5494201
:1004B000704763465B1000D3404201B504490028F1
:1004C00002DC491C084000E00846C046C04602BDA8
:1004D000FFFFFF7F704770477047754600F024F8B4
:1004E000AE46050069465346C008C000854618B0B0
:1004F00020B5FFF75DFE60BCB64600260027C0C5EC
:10050000C0C5C0C5C0C5C0C5C0C5C0C5C0C5403DCB
:10051000490849008D46704710B50446C046C0469C
:100520002046FFF718FE10BD00487047500300201A
:1005300001491820ABBEFEE726000200704770B5E7
:100540008C180578401C6B075B0F01D10378401CA9
:100550002A1106D10278401C03E00678401C0E7078
:10056000491C5B1EF9D12B0705D40023521E0DD464
:100570000B70491CFAE70378401CCB1A921C03E06D
:100580001D780D70491C5B1C521EF9D5A142D8D3B1
:10059000002070BDF0B58BB0B9480078002807D0B6
:1005A000B8480168012901DB491E01600BB0F0BDAC
:1005B000B4480668721E30469041B34909780291EA
:1005C000491E4D4201914D410540B04800780390CD
:1005D000AF4800780490AF480178AF480478AF483E
:1005E0000078AF4B1F78AF4B1B780A93AE4B1B784C
:1005F0000993AE4B1B780893AD4B1B780793AD4B1B
:100600001B780693AC4B1B780593012D1FD1059BDE
:10061000002B1CD1069B002B19D1079B002B16D158
:10062000089B002B13D1099B002B10D10A9B002B98
:100630000DD1002F0BD1002809D1002C07D10029A2
:1006400005D1049B002B02D1039B002B40D00096C8
:100650004B424B41012675402B4339D061426141E9
:10066000002D334600D10B46002B31D04142414191
:10067000002D304600D10846002829D07842784124
:10068000002D314600D10146002921D00098471E97
:10069000B84102998A1E5342534103400A99484285
:1006A0004841002B00D13046002800D1D4E01D463F
:1006B0007540099948424841002D314600D1014614
:1006C000002900D1C8E00098112805DB002004E0D3
:1006D0006C4802600BB0F0BD01201446029902295B
:1006E00000D03046089A514251410028304600D18E
:1006F00008462246611E8A41002806D0FF2092301B
:100700000099814207DB002006E00098801E5D49C9
:1007100008600BB0F0BD0120019C0A92002A31460E
:1007200000D10146079A504250410029314600D17C
:100730000146002904D00098332805DB002004E09E
:1007400000993239F04830E701200A9900293146F2
:1007500000D10146069A504250410029314600D14D
:100760000146002978D00098652801DB002000E0D0
:1007700001200A990029314600D10146059A5042CC
:1007800050410029314600D10146002968D00A9520
:100790000993049842424241EA4801784B424B4156
:1007A000029D012D00D03346002B334600D1134665
:1007B000621E9441002B56D0049B5A425A414B1E54
:1007C00099412546002C334600D10B46002B31467B
:1007D00000D11146002948D00499484248410A995D
:1007E0000029314600D10146002935D00398424204
:1007F0004241D54801784B424B41002D344600D14F
:100800001C46002C334600D11346002B2BD0039BF3
:100810005A425A414B1E9941002D334629D10B466D
:10082000002B28D0002E29D00399481E8141099819
:100830000840012800D0B9E60898002800D0B5E6A5
:100840000798002800D0B1E60698002800D0ADE651
:100850000598002800D0A9E6AB4807600BB0F0BDB2
:100860000098401F53E7491E00E00D2101700BB0B6
:10087000F0BD002BD6D11646002ED5D11521F5E7B7
:10088000280700207008002066080020E9050020E5
:10089000E8050020B9030020FC050020ED0500203C
:1008A000EB050020EA050020EE050020F4050020FD
:1008B000F1050020F3050020F2050020F0B588B016
:1008C00090480078002806D08F480168072900DC8E
:1008D000D4E00921D3E08D4807788D4805788D480C
:1008E00006788D4804788D4803788D4801788D48C6
:1008F000007807908C4A107806908C4A12780592FE
:100900008B4A107804908B4A107803908A4A1078AA
:100910008A4A12780292012A23D1002821D1039A0F
:10092000002A1ED1049A002A1BD1059A002A18D148
:10093000069A002A15D1079A002A12D1002910D14F
:10094000002B0ED1002C0CD1002E0AD1002D08D185
:10095000002F06D1F7480168622900DC8EE064218F
:100960008DE001902846009777427741029D6E1EE8
:10097000721E96413E4377D0012766426641012DA3
:100980003C462A4600D13446002C73D005465C42D2
:100990005C41012A3B4600D12346002B6AD04B42E2
:1009A0004B41012A394600D11946002962D00798E7
:1009B00041424141022A384600D10846002859D018
:1009C000069948424841022A394600D10146002989
:1009D0005AD0059948424841022A394600D1014679
:1009E000002957D0049948424841022A394600D18B
:1009F0000146002954D0039948424841022A394609
:100A000000D10146002955D0019948424841022AA7
:100A1000394600D10146002957D068426841012A71
:100A2000394600D1014600295AD068426841022A5D
:100A3000394600D1014600298CD0009948424841EE
:100A400002990129394600D10146002952D0009966
:100A5000484248410299022900D10746012F0FD090
:100A6000059800280CD175E7B2480168002905DD1A
:100A7000022104E0AF480168002903DA491C016043
:100A800008B0F0BD0121FAE7FD480168FD29F5DD58
:100A9000FF21F4E7FA4801682F2909DC891CEEE7F9
:100AA0002749F74802688A420DDC32321146E6E7F0
:100AB0003221E4E77D208000831EF1490A689A42D2
:100AC0000BDC501C09E03331D9E77D208000831F07
:100AD000EB490A689A4200DC501D086008B0F0BD7E
:100AE00018480178491CCAB20D2A00D900210170AA
:100AF00008B0F0BD14480178491CCAB2152AF5D8CF
:100B0000F5E7C0462807002070080020E90500200E
:100B1000E8050020B9030020FC050020ED050020B9
:100B2000EB050020EA050020EE050020F40500207A
:100B3000F1050020F3050020F205002066080020E2
:100B40009D070000B0030020B1030020F0B581B084
:100B500072490A78022A02D0002A2BD009E0704993
:100B600009784B424B416F490C78651EAC411C43E0
:100B700017D002214A406D490B7813435A1E934106
:100B80006B4A1278544254411C4317D1664A125C96
:100B90006848026068480078002805D00A20504361
:100BA00008E0614A105C05E064480078002800D144
:100BB000A6E050005F4A1060012008705E4F387850
:100BC000002821D05B4804686421204606F01AFF03
:100BD0000A252946FFF790FB30315A4F797020469D
:100BE000294606F00FFF06462946FFF785FB303100
:100BF000B9707543601B3030F8704F4F7D20C100D5
:100C0000204606F0FFFE22E04D4800784B49097867
:100C1000014324D04B492020C870464805680A2467
:100C20002846214606F0EEFE06462146FFF764FB05
:100C30003031444A51706643A81B303090706421B3
:100C4000284606F0DFFE2146FFF756FB0846303007
:100C50003C4B18703C493D4A184600F01FF9374894
:100C600000783978014319D1364F2020F870314887
:100C700004686421204606F0C5FE303038700A252D
:100C80002046294606F0BEFE06462946FFF734FBFD
:100C9000303179707543601B3030B8702C48007863
:100CA000002807D02348006800280FD0012833D13E
:100CB00029482DE029480078002809D01D480068FF
:100CC000002811D0012827D127A021E021481FE0CA
:100CD00027480078002809D016480068002816D058
:100CE000012819D125A013E01DA011E025480078A6
:100CF0000028D7D1244800780028D3D1114807E034
:100D00000F480078002800D156E7052047E719A0D2
:100D10000D490E4A00F0C2F801B0F0BD660800208F
:100D2000E8050020290700202B0700202A070020C3
:100D3000E905002070080020F1050020F3050020DF
:100D4000F20500202C080020717C0008657C00085A
:100D5000FC050020777C00087C7C0008ED05002065
:100D60004C20202000000000522020200000000025
:100D7000EB05002043432020000000004F434320A8
:100D800000000000EA050020EC050020F0B581B06D
:100D90003848012707703848047805200507802166
:100DA0002846224600F03BFD26467E40402128464C
:100DB000324600F034FD20212846224600F02FFD67
:100DC00010212846324600F02AFD082128462246F6
:100DD00000F025FD29490878042847D8784400798F
:100DE0004000874402262C32080025480078303025
:100DF000244908702EE00020087021490860214A2B
:100E0000D1789378147855781F4E166064226A431F
:100E10007D25ED006C43A2180A245C431219511879
:100E20001A4A8918EA35A9421AD112490870184895
:100E30001BE0134800783030124948700AE010482F
:100E4000007830300F49887004E00D480078303069
:100E50000C49C8700B4810490A4600F01FF805E01D
:100E6000044908700A4908700A480770002001B058
:100E7000F0BDC04628070020670800204C0800206D
:100E8000700800202002002020202020B02FFFFF2B
:100E90008508002032080020767C0008F0B583B079
:100EA000029201910646244C207800280ED001259C
:100EB000EFB2384604F0D8FBB819401E007804F0B1
:100EC000C1FC6D1CE8B221788842F1D90126304678
:100ED00000F01EF90520070731023846324600F0BF
:100EE0009EFC164C08212046324600F098FC40211A
:100EF0002046324600F093FCF1023846324600F0BC
:100F00008EFC202100262046324600F088FC0C4C46
:100F100020780028029D019F0BD0B85D3038C0B208
:100F2000A95D3039C9B202F037FA761C20788642C2
:100F3000F3D303B0F0BDC046EC0200200004005023
:100F40008800002080B5012000F084FB022000F022
:100F500081FB80BD80B5042000F07CFB80BD10B516
:100F6000102000F077FB402000F074FB01242003E8
:100F700000F070FBE00300F06DFB10BDB0B586B073
:100F80000C46054600F04CFA012005900220029024
:100F900004200390281BC117490D4018C01204906B
:100FA0000020019002A801A900F0C4F800F01CF98B
:100FB00006B0B0BDEFF3108072B6FEE7F0B581B0B9
:100FC00005460120009000F033FC0646A34F386828
:100FD000C0030AD43868A2494A1C3A60084012D0BB
:100FE000A0494860009801B0F0BD0098040402E0F8
:100FF00038682042EED0681CFAD000F019FC801B43
:10100000A842F5D311E0396800204903EBD50090E0
:101010000120840402E038682042E3D0681CFAD042
:1010200000F006FC801BA842F5D3032001B0F0BD00
:1010300070B500282AD0014624314A78022A27D1E7
:10104000046822680E239A432260426C15682E4B76
:101050001D4015602568012295432560046C1C2500
:1010600025401446AC40294D2E6826432E60846CE2
:10107000C56C6560046D002C05D025681D40256099
:10108000436D806D58604A70002004E0012070BDFF
:101090000422C263012000220A7070BD70B50146AF
:1010A00024314A78022A2BD103681A680E24A243FD
:1010B0001A601C68012294431C60446C2568124B22
:1010C0001D402560046C1C2525401446AC400F4D86
:1010D0002E6826432E60846CC56C6560046D002C00
:1010E00005D025681D402560436D846D5C6000243B
:1010F0000C704A70816B002900D08847204670BD73
:101100000421C163012070BDFFFEFFFF0400024007
:10111000B0B5044600F08CFB0546601C02D00448C4
:101120000078041900F084FB401BA042FAD3B0BD44
:1011300044030020F0B583B00546B64C2078012862
:1011400002D1022003B0F0BD0291002767600120A8
:1011500020707D20C6003046FFF730FF002839D1CF
:10116000042068602868042809D11D48801C1B4998
:101170000A6802430A603046FFF720FF2AE0F8437E
:10118000029908603946AF68E868C0198742019142
:10119000084619D2FC0011490868124A1040204341
:1011A0000F4A104308603046FFF708FF002808D1B7
:1011B000A868E968081808347F1C8742EBD30198B7
:1011C00001E002990F60934C044B1968022291438D
:1011D0001960019F277003B0F0BDC0461420024083
:1011E0000200010005E0FEFFF0B581B00120009093
:1011F00000F01EFB0446884D2868C0030BD50098FC
:1012000007047D20C60000F013FB001BB0421AD279
:1012100028683842F7D1286880494A1C2A6008406B
:1012200002D07C4948600EE0286840030BD5009846
:1012300087047D20C60000F0FBFA001BB04202D2FA
:1012400028683842F7D10098C0076968014369608F
:101250006868C043C00F01B0F0BDC0461020024016
:10126000FA830000B8090020F0B587B00E4669493E
:101270000C78012C01D10226C8E001930292039060
:10128000002005904860012008700490040400F0DC
:10129000CFFA0546604A1068C0030AD57D20C70012
:1012A00000F0C6FA401BB8422FD25B4A10682042B9
:1012B000F6D1106859494B1C1360084003D05549BA
:1012C0004860049EA0E000930120049080040690F2
:1012D000106840030BD57D20C70000F0A9FA401B21
:1012E000B84212D24C4A106806990842F5D1039FC1
:1012F000012F0DD1506801210143516002983060E7
:10130000BFF36F8F0198706048E0032641497BE08E
:101310005068069908435060EFF310800190EFF396
:10132000108172B6059A114602984358735073188B
:1013300045186F685F60AF689F60EF68DF602F6976
:101340001F616F695F61AF699F61EF69DF612F6A3C
:101350001F626F6A5F62AF6A9F62EF6ADF622F6B24
:101360001F636F6B5F63AF6B9F63ED6BDD630F2379
:101370001343403110323F2BD7D3274A1168214203
:1013800008D01168214205D01168214202D01168AD
:101390002142F3D1019880F31088039F164600F094
:1013A00047FA05463068204232460AD07D20C60002
:1013B00000F03EFA401BB04220D2174A106820428B
:1013C000F6D11068009911601449084003D0114902
:1013D0004860049E15E010680026069908420BD06C
:1013E0007D20C40000F024FA401BA04206D20A4A25
:1013F000106806990842F5D1064902E0032605491E
:10140000054A5068B843506005980870304607B0E8
:10141000F0BDC046B809002010200240FA83000049
:101420000648C168002901D40020704704490160C2
:1014300004490160C068C00F7047C04608200240E0
:1014400023016745AB89EFCDF0B581B004466B4809
:10145000002505706A4E6C4B6C480078002837D127
:101460001878002834D167480078002830D13078C7
:1014700000282DD1012739038C420AD1052000070D
:101480001E4600F0C7F933465D4E41424141604877
:1014900001706048007860490978014318D1601EE6
:1014A0000F2800D994E0C046784400794000874472
:1014B00007953321333333333333333333333329E2
:1014C000D24801211C4600F0A5F92346574920E0E7
:1014D000042C0FD0102C15D00120C00384421BD146
:1014E000052000070121C9031C4600F093F923469B
:1014F0004C490EE0C54804211C4600F08BF92346F8
:10150000464906E0C14810211C4600F083F92346F5
:101510004349424242410A70357046480570197885
:101520004548027813460B43581E834143480078D0
:10153000444244413B4E36787742774127431F432C
:1015400018D13F48012404703E4801783E48007895
:1015500004F01AFB2F480570324805702E480470BD
:101560003A480570294805703448007826490978BA
:10157000314A127801234C1EA141002A1A4600D19B
:101580000A46274C21784E424E41002A194600D186
:10159000314642424241002903D0002B04D001B021
:1015A000F0BD1346002BFAD12548012606702548C8
:1015B00001782748007804F0E7FA1648067025708D
:1015C00015480570214805701048057001B0F0BD40
:1015D000402C0BD0F803844282D09DE78B48022137
:1015E0001C4600F017F92346114992E7884840212C
:1015F0001C4600F00FF923460B498AE7CE04002071
:10160000F705002069080020FB050020F8050020F0
:101610000C070020FA050020F90500200E07002025
:101620000D070020090700200F0700200A070020EF
:101630000B070020D804002007070020F505002034
:10164000080700200300002000000020BC04002048
:1016500005000020B0B50446074D2868204203D09D
:101660002C60204600F00AF86868204203D06C60C5
:101670002046FFF7E9FEB0BD0C180240704700009D
:10168000F0B58AB009910968002900D1B5E0064695
:101690005B48864201D0052000E00320009000272F
:1016A00007973C46089710E00A432A607F1C099878
:1016B00001680846F840089A08320892079A121DF5
:1016C0000792A41C002800D197E001250295BD4097
:1016D0002940EBD003970191324603231846A040DE
:1016E000C14327460998446820461840461E012EEB
:1016F00006910594049710D893680B400999CE6819
:10170000BE401E439660E306DB0F039FBB40566856
:10171000AE431E435660164607E003281646039F55
:1017200003D11846059A049C1DE0F36806990B4006
:10173000099A9568049CA5401D43F5600228059A06
:1017400011D11C20079908400F228240FB089B0002
:10175000F3181D6A954309990A6982402A431A625F
:101760004A6803201040A040336806990B400343A9
:1017700033609003800F99D003203A46824321487A
:101780008018026E05231B079E420AD01F4B9E4203
:1017900005D01F4B9E42009904D1022102E002991C
:1017A00000E000211823089D2B400F259D40AA43EF
:1017B0006030994011430160124D2A6809984068D1
:1017C000C30202D501990A4301E001998A432A60C4
:1017D0006A68830201D50A4300E08A436A600A4DC1
:1017E0006A68830301D50A4300E08A436A602A6875
:1017F000C00300D558E78A4357E70AB0F0BDC0469A
:10180000000C0050001802408018024000040050F4
:101810000008005000690840411E88417047002AB6
:1018200002D0182281507047282281507047000052
:10183000054800687047C0461F48007802490A689A
:10184000101808607047C046D809002010B5012460
:10185000200208490A6802430A60032000F00CF8DD
:10186000002801D0204610BD00F02AF800242046B0
:1018700010BDC04600200240B0B505460E480178B4
:101880000124002916D07D20C00006F099F80146F9
:101890004F48006806F094F800F0A2FC032D09D828
:1018A000002807D10024E0432946224600F02AF808
:1018B000024805602046B0BD4403002048030020D4
:1018C00082B00948416801221143416041681140DA
:1018D00001910199110702680A43026000680840FB
:1018E0000090009802B070473C100240002805D4D8
:1018F0001F21084001218140014801607047C04616
:1019000000E100E0002805D40322034693430A4A7D
:101910009A1803E00C220240064BD2188007C00E32
:101920008901C9B28140FF2383401068984308436E
:101930001060704714ED00E000E400E0BFF34F8F4B
:10194000044805490160BFF34F8F00BF00BF00BFCF
:1019500000BFFAE70CED00E00400FA05F0B581B035
:1019600003256902194E3246143A13688B43034328
:101970001360012461020022884224D1EF480168EB
:10198000306840051FD50092A70206204843114940
:1019900006F016F8201A022814D0316839420FD008
:1019A00001280FD0316839420AD000280AD03168A6
:1019B000394205D0001D032804D031683942EAD1EC
:1019C000009A00E02A46104601B0F0BD14700040B5
:1019D0003C03002040420F00F0B587B006468078F7
:1019E0008007524C01D400204EE0059601210F07DC
:1019F000203C20683840049006D12068384320609D
:101A00002068384006900698039402910E02484CD4
:101A1000206830432060FFF70BFF05462068304206
:101A200008D1FFF705FF401B0228F7D90320059EC8
:101A30003E4C22E00320019001023C48006808402F
:101A4000059E12D0716988420FD0384B18680299F0
:101A500009041A680A431A601A688A431A60014620
:101A6000344A11401960C00750D1304C20683149C8
:101A7000084071690143216000200499002903D1C5
:101A8000039A1168B94311603768F90707D02146F6
:101A900008390A6803239A43736813430B60B90635
:101AA00008D5032109032246083A13688B43B1681D
:101AB0001943116001217A0412D52246083A1368AD
:101AC0001D4C234035692B431360621C174C954213
:101AD00006D10A042346503B1C6814431C60134C77
:101AE0003A0511D58D03032292032346083B1C6857
:101AF0009443F26814431C600C4BAA4204D10A04BC
:101B0000503B19681143196007B0F0BDFFF790FE14
:101B10000546804C054800688007A6D4FFF788FE7C
:101B2000401BA042F6D90198004CA6E75C10024089
:101B300000700040FFFCFFFFFFFFFF3FF0B583B0E8
:101B40000D460121002800D1CFE00191029070489C
:101B5000006807242040A84213D26D490868A043BA
:101B6000284308606B4EFFF763FE0746684800682D
:101B70002040A84205D0FFF75BFEC01BB042F5D95C
:101B8000B2E0029E306881078D4B0CD5410703D52A
:101B900021031A680A431A600F2109021A688A434E
:101BA000B16811431960C00718D159480068204036
:101BB000A84228D956490868A04328430860554FD1
:101BC000FFF736FE0646524800682040A8421AD069
:101BD000FFF72EFE801BB842F5D985E002984068D9
:101BE00003285AD8810001A251588F46FD1B0008D6
:101BF0009F1C0008A91C0008B31C000819460839DE
:101C00000968490557E0029A107840076C4B05D5E2
:101C1000200319688143D06808431860186880065B
:101C2000400F22D01A6838210A406648082A23D07B
:101C30001A680A40102A5BD1596803220A40032A15
:101C400000D0614859684906490F491C05F0B8FEA3
:101C50005B4949684904490E484359494968490F55
:101C6000491C05F0ADFE564B06E0184608380068E2
:101C70008004410F5448C840196889093C220A4031
:101C8000254989581F220A40D0402C490860234822
:101C90000068FFF7F1FD014627E0596D0AE019469B
:101CA00008390968890306E0194608390968890175
:101CB00001E0996D8907019917D51968A14301437E
:101CC0001960144FFFF7B4FD06463D4800683821FF
:101CD000014002984068C000814200D165E7FFF7EB
:101CE000A7FD801BB842F0D90321084603B0F0BD20
:101CF00018680840202802D10120C003BCE71868FA
:101D00000840182801D00020B6E77D200002B3E784
:101D10000020024088130000C47B00084803002014
:101D20000648006826490968890A1C220A400449B5
:101D300089581F220A40D0407047C0463C0300200B
:101D4000047C000810B51E4C20688006400F06D0A9
:101D5000226838210A401B48082A07D110BD083CD8
:101D600020688004410F1848C84010BD22680A400E
:101D7000102A15D1616803220A40032A00D01248B4
:101D800061684906490F491C05F01AFE616849045B
:101D9000490E48436168490F491C05F011FE10BD0A
:101DA00020680840202802D10120C00310BD20680F
:101DB0000840182801D0002010BD7D20000210BD71
:101DC0000810024000127A000024F400F0B587B039
:101DD0000125002800D1F0E1049505900078C007A6
:101DE000F74F2AD0B868F96803252A468A43382174
:101DF000014010204840821850425041082914D018
:101E0000002812D105984268012001048A4208D0B6
:101E100005231B049A4200D0DAE082043B68134396
:101E20003B603A680A433A60DBE03868800304D5D7
:101E300005984068002800D173E105980078800774
:101E400023D40598007800070CD5B86838210140E4
:101E5000182971D1386E800704D50598806900284B
:101E600000D15EE1059A1078400700D42EE1B868F1
:101E700038210140202974D1F86D800700D425E174
:101E80009068002800D021E14BE1B9683820084073
:101E900010214140FA6803252A4002235340CA1802
:101EA00051425141002820D000291ED13868059A9E
:101EB000D168002900D1A2E00721C9028843116935
:101EC00001433960012001023A680A433A60840202
:101ED000FFF7AEFC06463868204200D0A1E0FFF7CD
:101EE000A7FC801B0228F6D967E139684905059BE4
:101EF00003D5D968002900D113E17F2109027A684E
:101F00008A43596909021143796000280DD10720DD
:101F1000C002396881431869084338603868800412
:101F2000400FA849C140A8480160A8480068FFF7D1
:101F3000A3FC002885D0F4E0386E05998969002952
:101F400079D0012108433866FFF772FC0646386EE7
:101F5000800787D4FFF76CFC801B03250228F6D985
:101F60002BE1012003900107F86B0840029006D195
:101F7000F86B0843F863F86B0840069006980191E7
:101F800093480068C00513D4039804029049086878
:101F900020430860FFF74CFC06468D48006820424D
:101FA00006D1FFF745FC801B03250228F5D904E183
:101FB00005988068874C012805D005285AD1F86D0E
:101FC00004210143F965F86D03990843F8655BE066
:101FD0003B688B433B6081043B688B433B60002A3A
:101FE0003AD04404FFF724FC06463868204200D06B
:101FF00023E7FFF71DFC801B6428F6D9DDE00121F3
:102000000A02904338608C02FFF712FC06463868DB
:10201000204200D115E7FFF70BFC801B0228F6D900
:10202000CBE07F2000027968814305984069000277
:102030000843786005E7012188433866FFF7F8FB1D
:102040000646386E800700D40CE7FFF7F1FB801BD3
:1020500003250228F5D9B0E04404FFF7E9FB064662
:102060003868204200D1E8E6FFF7E2FB801B6428D5
:10207000F6D9A2E0F96D039A9143F965F96D04224E
:102080009143F96500280CD0FFF7D2FB0646F86DA6
:10209000800713D4FFF7CCFB801B0325A042F6D9A1
:1020A0008BE0FFF7C5FB0646F86D800706D5FFF706
:1020B000BFFB801B0325A042F6D97EE002980028D2
:1020C000059A03D1F86B01998843F863D469002C11
:1020D00072D0B86838210140102924D1012C20D0B9
:1020E000F86803210140059B1A6A914219D17021B9
:1020F00001405A6A914214D17F21090201409A6A33
:10210000120291420DD11F2149040140DA6A914225
:10211000049D52D1072149070840196B88424BD0D2
:102120004BE0049D49E00125290638680491884365
:102130003860FFF77DFB0646022C0BD103956C0639
:102140003868204211D0FFF773FB801B032502285B
:10215000F6D932E06C063868204229D0FFF768FBD8
:10216000801B03250228F6D927E0F8681B490140A7
:10217000059E20366DCE08431043190201432943C2
:102180003143F960386804990843386003980007C0
:10219000F9680143F960FFF74BFB064638682042B7
:1021A0000AD1FFF745FB801B03250228F6D904E07E
:1021B000F86809490140F9600025284607B0F0BDDC
:1021C000001002400024F4003C03002048030020DB
:1021D0000070004088130000FCFFFEEF8C80C11FE0
:1021E000401E010E01D0012070470749074A506088
:1021F000074803680B400321890759180160002034
:102200009060072111607047FFFFFF0010E000E0C1
:1022100020ED00E0704770477047000070B53C2229
:10222000825C012A01D1022070BD02463C320223A9
:1022300053700068456883686F4CA04201D02E46F9
:1022400004E00F263605B5434E682E437025AE4395
:102250000D6835434560A04202D0684CA04204D1CD
:102260008024A343896819438160002010700121F4
:10227000517070BDB0B5002819D0044605463C35F4
:102280006878002804D100202870204600F05EF80D
:1022900002206870206803685749884202D0574A74
:1022A000904206D170229343A2681A4302E00120B3
:1022B000B0BD1A46224B984208DD88420CD0214B13
:1022C000984209D0204B984206D036E04B4B9842BA
:1022D00002D0344B984230D103231B029A43236926
:1022E000134380229343A2691A430260E268C262E8
:1022F00062688262884205D01249884202D012493F
:10230000884201D16169016322463E324434012191
:1023100041610369DB0702D003698B4303612171CB
:10232000117051709170D170117151712170617083
:10233000A170E17069700020B0BD1346D1E7C046BE
:10234000FF2B0140004801400044014010B582B01D
:1023500000681449884210D02749884220D10121C1
:10236000C802114A136803431360126802400192C5
:1023700001980D24002220460DE00120C0030A49E7
:102380000A6802430A60096801400091009813241A
:10239000002120460A46FFF7B5FA2046FFF7A6FAC5
:1023A00002B010BD002000404010024010B53D2199
:1023B000415C012918D101463D3102220A700168B1
:1023C000C86801221043C8600B48814202D00B4804
:1023D00081420BD188680A4B03400020062B02D0B3
:1023E0001404A34202D110BD012010BD086810439F
:1023F0000860002010BDC046002C014000040040D1
:1024000007000100F0B53C22825C012A01D10220C4
:10241000F0BD02463C32022353700468A0684B4B67
:102420000340A3600D6800234F2D1EDC1F2D37DDF8
:10243000202D39D0302D37D0402D00D083E0206AB8
:10244000256A0126B5432562A569F026B543CE6805
:1024500036012E43A6610A25A8434968014321623B
:10246000A0683B490140473167E06F2D24DD012022
:102470004603B5423CD00003854218465FD0702D1C
:1024800061D1FF200002A568854348688E68C9684D
:102490000643080230432843A060A068772135E056
:1024A000002D01D0102D4ED1A068294901400D43C7
:1024B00007202843A06041E0502D29D0602D42D153
:1024C000206A256A1026B54325620F252D03A669CB
:1024D000AE43CD682D033543A561A025A8434968C7
:1024E000090101432162A06819490140673124E0D4
:1024F000FF252D02A668AE434D688F68C9682F433B
:10250000090239433143A1608003A168014314E00B
:10251000206A256A0126B5432562A569F026B543E0
:10252000CE6836012E43A6610A25A84349680143B7
:102530002162A068064901405731A1601846137016
:1025400001215170F0BD0120F9E7C0468800CEFF9F
:1025500088FFCFFF70470000F0B583B004460068E5
:10256000C5680227294639404A424A410169029119
:1025700039404B424B41134313D16C49FE31016149
:10258000012121778069800703D02046FFF7E2FF11
:1025900005E0204600F0CEF8204600F0CCF8002000
:1025A00020770126042229461140484248410299D9
:1025B0004907314600D50146032000020190002959
:1025C00016D1009220685949FC3101612777806952
:1025D0000199084203D02046FFF7BCFF05E02046E2
:1025E00000F0A8F8204600F0A6F800202077009A16
:1025F000082729463940484248410299090731468F
:1026000000D50146002913D120684849F8310161FD
:102610002277C069800703D02046FFF79BFF05E0C3
:10262000204600F087F8204600F085F8002020774B
:1026300010212940484248410299C906314600D537
:102640000146002914D120683849F031016127770B
:10265000C0690199084203D02046FFF77BFF05E0DF
:10266000204600F067F8204600F065F8002020774B
:1026700001212940484248410299C907314600D00A
:102680000146002906D120682849FF310161204612
:1026900000F052F880272F40784278414121C9014B
:1026A000029A0A42314600D00146002905D120682D
:1026B0001F4901612046FFF7AEFD7842784102993B
:1026C000C905314600D50146002905D120681749C2
:1026D00001612046FFF79EFD4021294048424841C4
:1026E00002994906314600D50146002906D12068E5
:1026F0000E49C0310161204600F042FA2020054019
:10270000684268410299890603D4002E04D003B0C0
:10271000F0BD0646002EFAD120680449E03101617F
:102720002046FFF779FD03B0F0BDC046FFFEFFFF76
:102730007FDFFFFF70477047F0B581B0EC498842FA
:1027400004D0EC4988420FD001B0F0BDE6480178D2
:10275000022905D3E5490A78012353400B70002173
:10276000491C017001B0F0BDE34D40212846FFF740
:1027700051F8E24C00281BD0012620463146FFF7D5
:1027800049F800282DD040212846FFF743F80128BA
:1027900064D101212046FFF73DF801285ED1D848D9
:1027A00000210170D7480170D7480170D74F53E01E
:1027B000D34F3878401C3870D44B1E78D24A1178E9
:1027C0002C46002901D1761C1E70CE4D2978F6B218
:1027D000192E1FD300291DD1012028700020187048
:1027E00038E0C74F3878411C3970C84B1A78C64852
:1027F0000078002801D1521C1A70C24D2878D2B23C
:10280000192A10D300280ED101202870002018703A
:10281000B94D21E0192E13D3012911D101201070D7
:102820000220287016E0192A00D210E1012800D0F9
:102830000DE10120B449087002202870AE4D0BE074
:102840000029C2B200D017E1042A00D214E1B14835
:10285000FEF734F82546A94C00203870AE480078C1
:1028600000280BD0AD480178491C0170C9B2052978
:1028700004D100210170AA4801210170052006073A
:10288000012001033046FEF7C5FFA6490A78521C15
:10289000D2B21E2A00D31E220027002800D03A46BA
:1028A0000A7040212846FEF7B5FF002838460BD1B4
:1028B0009D48002101709D4801709D480078401C92
:1028C000C0B21E2800D31E20994908700125204659
:1028D0002946FEF79FFF00280DD193480021017083
:1028E000924801709348017093480078401CC7B229
:1028F0001E2F00D31E2790480770E9033046FEF7CD
:1029000089FF8E490B681E261C2B324600DC5A1CA0
:102910000027002800D03A460A6010212046FEF722
:1029200079FF87490B681C2B324600DC5A1C0028B3
:1029300000D03A460A6002212046FEF76BFF81492B
:102940000A681C2A00DC561C002800D03E460E6097
:1029500004212046FEF75EFF002802D07A480021BD
:1029600008E0794801684A1C02601D2903DB7749A9
:102970000D701E2101607648017800290DD06D4947
:102980000A78521C0A70D2B2C82A06D100220270FC
:10299000704805700A707048057070480178634C83
:1029A00022780A431206604A137801D15B1C137027
:1029B000DBB2642B02D300231370257000290BD1E6
:1029C00067490A78642A07D30022027065480270BA
:1029D0006148057025700D706348007800280CD0A0
:1029E00062480178491C0170C9B20A2905D3002147
:1029F00001705F480178491E01705E4F38780028E9
:102A000000D1A1E65C4E3078401C3070C0B20A287C
:102A100000D299E600242846214600F0BDFC0220A1
:102A2000214600F0B9FC0320214600F0B5FC04204B
:102A3000214600F0B1FC0520214600F0ADFC3C70C1
:102A40004E48047034703948057001B0F0BDC9B209
:102A50000429324600D30022431E05469D411543FA
:102A60002B4A1268534253412B4338D053425341AF
:102A7000022915D3002514E00129254605D1022A93
:102A800003D32448FDF71AFFE5E602291B4C00D0CA
:102A9000E4E6000600D1E1E61E48FDF70FFFDBE6A5
:102AA000012500950128354600D1009D002D3546B1
:102AB00000D11D46002D12D0534253414A424A4193
:102AC0000228304600D1104600280B4D00D11E468A
:102AD000002E00D0C2E60F48FDF75CFDBCE60D48B5
:102AE000FDF758FD044DB7E6D90400206708002023
:102AF000D80800208C080020000800500004005076
:102B0000C40400204D0800208D000020CD040020CA
:102B1000700800201407002044080020310800201D
:102B200030080020CC040020D8040020F705002045
:102B3000DA040020CE040020C6040020C0040020D7
:102B4000D0040020C8040020D40400203308002052
:102B500085080020F005002032080020080700202A
:102B6000BD0400200607002007070020C504002040
:102B700072000020FB050020DB040020DC040020A4
:102B80007047B0B58421415C012901D10220B0BD5C
:102B9000024684322421516001680B680C680125CB
:102BA000AC430C606C07A3430B60002141661170BD
:102BB000202050600846B0BD70477047F0B581B026
:102BC000054668352A7F012A02D1022001B0F0BDF6
:102BD00024222A620668376832680124A2433260E0
:102BE00007225206B36893430B43B360406E00283C
:102BF000204615D00097B768B068400F2B49095C94
:102C00002B4A105CC00004F0DBFE04463801009F34
:102C1000400F2649095C264A105CC00004F0D0FE33
:102C200028806C803760002028772021296201B03D
:102C3000F0BDC046F0B581B0054668352A7F012A4F
:102C400002D1022001B0F0BD24222A620668376852
:102C500032680124A243326007225207B3689343CB
:102C60000B43B360406E0028204615D00097B7682C
:102C7000B068400F0D49095C0D4A105CC00004F0BB
:102C80009FFE04463801009F400F0849095C084A2E
:102C9000105CC00004F094FE28806C803760002037
:102CA00028772021296201B0F0BDC046447C00088D
:102CB0003C7C00087047704770470000F0B589B051
:102CC00003460068C76920240126F20211462F310D
:102CD0003940056808935C33079306908068202983
:102CE0000494059010D12946214001231B0703407D
:102CF000C918384618D00898416F002900D1E4E17E
:102D00000898884709B0F0BD03920F321742384641
:102D10000AD0E84929403207541C0346059804406C
:102D20001846611800D08BE01027294639404B42E5
:102D30004B41014639404C424C411C430899C96EF5
:102D4000491E4B1E9941214339D001240126B1056A
:102D5000059F39404B424B41C1022146069A00D59E
:102D60001946002900D1E7E0010606D58021294057
:102D7000F2051740C91900D08DE1402229461140C3
:102D80004B424B414106214600D51946002900D14E
:102D900028E1B10729404A424A410102214600D5B3
:102DA0001146002900D180E1002D00DB84E10026DE
:102DB000C00100D583E1002C00D183E185E10698B4
:102DC00007628068400600D5BDE0079E70883188A4
:102DD0007288002A00D178E1814200D175E1EFF3D9
:102DE0001083012282F3108809246401089D069053
:102DF00028680668A643066083F31088EFF3108303
:102E000082F310882C68A068B14E0640A66083F358
:102E100010880498079B186300236B67EB66EFF339
:102E2000108382F310882A681468BC43146083F30B
:102E3000108802222A670698081A81B22846CDE037
:102E40000192014631404B424B41310202952940EB
:102E50004D424D411D43069A05D101211162079D46
:102E60006B6B0B436B630127059B3B405D425D41F0
:102E70008107314600D5294600290BD10221116274
:102E800007994D6B009504253A46009F3D43174630
:102E9000069A4D635D425D414107314600D52946A2
:102EA000002906D104211162079D696B02230B439F
:102EB0006B630107089D0AD50299049B19400C43D6
:102EC00005D008211162079C636B0B436363B9064D
:102ED000029B19404B424B410399084200D01E46C9
:102EE000002E079E04D11162716B049B194371631C
:102EF000716B002900D1E8E0049908400CD0059BD3
:102F00000198034002980840184305D0696F0029D2
:102F100002D0284688472A68706B282101409268B1
:102F200040200240511800D071E02846FFF7C4FE4F
:102F30000020706309B0F0BD300510620898FFF7FB
:102F4000BAFE09B0F0BD079E706A006841688AB297
:102F5000002A00D1B9E033889A4200D3B5E07180ED
:102F60000068800633D4EFF31081012080F31088CD
:102F7000594A2032089D2B681C6814401C6081F35C
:102F80001088EFF3108180F310882A6893688343D8
:102F9000936081F31088EFF3108180F310882A6822
:102FA00093684024A343936081F3108804993163AC
:102FB0000021E966EFF3108180F310882868026829
:102FC000BA43026081F31088706AFEF731F802217B
:102FD0000898016732887188511A89B2FFF7ECFDB1
:102FE00009B0F0BDEFF3108086F31088089C2168CB
:102FF0000B6893430B6080F310880020A06707984C
:103000000499C162204600F0C5F909B0F0BDEFF3A4
:10301000108187F31088092252012B681C689443A1
:103020001C6081F31088EFF3108187F310882A6801
:103030009368274C1C40946081F31088E96E012945
:103040000AD1EFF3108187F310882A6813681024DF
:10305000A343136081F31088049931630021E9666A
:1030600069672968896849061AD5EFF3108187F3E3
:1030700010882A6893688343936081F31088706A8C
:1030800000280DD013498163FEF708F800281CD0F2
:10309000706A816B35E60898816F002915D02FE69C
:1030A0002846FFF709FE09B0F0BD0898FFF702FEB9
:1030B00009B0F0BD20010004C00100D47BE6344615
:1030C000002C02D10898FFF778FD09B0F0BDC0468A
:1030D000FEFFFFEF6D5E0008DFFEFFFFB0B50028CA
:1030E0001ED00446054684356868002804D10020B7
:1030F0002870204600F02AF82420686020680168C3
:103100000125A9430160A06A002802D0204602F0F0
:10311000E5FD204603F042F9002803D02846B0BD63
:103120000120B0BD0920C00221684A6882434A607C
:1031300088682A22904388600868012202430A6056
:10314000204602F035FE05462846B0BDB0B58CB02D
:103150000024069405940494039400681B49884253
:1031600001D00CB0B0BD02940125019501A8FEF775
:1031700033FC002801D0FDF71DFF1548C1680B95F1
:10318000AA031143C160C168114000910099016810
:10319000294301600068284000900A9409940220A5
:1031A000089003204002079000980520000707A917
:1031B000FEF766FA1B25284621462246FEF7A2FBAB
:1031C0002846FEF793FB0CB0B0BDC0460038014066
:1031D00034100240F0B581B08C23C358202B10D19D
:1031E0000124002922D0002A20D001231C03856855
:1031F000A54208D1CC0706D00469002C03D11C4697
:1032000014E0022412E00024C46605686D682D02F3
:103210000AD5EFF3108583F310889B06066837689C
:103220001F43376085F3108803F06CF9204601B026
:10323000F0BD0000F0B581B01349884201D001B063
:10324000F0BD12480124047011480078114D124E4F
:103250003178002906D029680A2903DC0F4A505426
:103260004C1C09E0AA2808D10C4F781C0A21FDF754
:1032700030F8AA20387034702C60034804490122C9
:10328000FFF7A8FF01B0F0BD24090020430800208B
:103290008408002088080020830800207808002087
:1032A000F0B585B0054607465437786B202812D113
:1032B000012000290DD01646002A0AD01C46012004
:1032C0000303AA689A4209D1CA0707D02A69002ACB
:1032D00004D105B0F0BD022005B0F0BD0191002081
:1032E0000390F863212078630293FEF7A1FA04901B
:1032F0007E803E80A8680299884202D12869002811
:1033000001D0019E02E00026019803902868798888
:10331000002923D0C16909060ED4611CFAD0FEF73A
:1033200087FA01460320002C2ED0049A891AA14264
:103330002AD828680168EDE7002E03D03178816231
:10334000761C07E0039A1188114B19408162921C88
:10335000039200267988491E7980D8E7C169002642
:1033600000E0C16949060ED4611CFAD0FEF760FA8C
:1033700001460320002C07D0049A891AA14203D8E1
:1033800028680168EDE730462021796305B0F0BD7B
:10339000FF0100007047FEE780B5401E042849D8B1
:1033A0007844007940008744021D0B261400002950
:1033B0002AD001293ED1052000078021002237E0D4
:1033C000002925D0012935D1052000072021002220
:1033D0002EE0002920D001292CD10520000708214A
:1033E000002225E000291BD0012923D10520000758
:1033F000402100221CE0002916D001291AD1052005
:1034000000071021002213E00520000780210EE0B4
:103410000520000720210AE005200007082106E01A
:1034200005200007402102E00520000710210122AD
:10343000FEF7F5F980BD0000F0B583B0032900D98F
:1034400074E3044606462236433001902046683035
:103450000290880001A108588746C0466D340008D4
:10346000DD35000879370008AD39000801202070EB
:10347000B64800786070B64AD078A070B5484178F8
:10348000E17051782171C1786171B3490978A171F6
:10349000B2490978E171B24909782172B1498B8842
:1034A000A3731B0AE37313782374937863741379FB
:1034B0005279E274A374AC4F7A78BB786375227545
:1034C0000278A2758278E275027940796076227678
:1034D000A648C078A076A648C078E076A5480078CF
:1034E000207708683070010EF170010CB170000A8D
:1034F000707020462630FC4906252A46FCF78CFED3
:103500003878B072F8782D21605478793979F74A93
:103510001278B273F64A1278F273F64A127832745D
:10352000F54A12787274F54A1278B274F44A127835
:10353000F274F44A12783275F34A12787275F34ACB
:103540001278B275F24A1278F275F24A127832762F
:10355000F14A1278727722462D3251709070834A68
:103560001078402160542046403091788170517825
:10357000417050791179019E31707070204645304C
:10358000E6492A46FCF748FE794B18784B216054EF
:10359000987859781A795B793373F27222464B32F4
:1035A0005170907020465030DD492A46FCF734FEB9
:1035B00020465630DB492A46FCF72EFE20465C307A
:1035C000D9492A46FCF728FE20466230D7492A46C8
:1035D000FCF722FED648D749D74A9EE20120207048
:1035E000D64800786070D64AD078A070D548417827
:1035F000E17051782171C1786171D3490978A17165
:10360000D2490978E171D24909782172D1498B8870
:10361000A3731B0AE3731378237493786374137989
:103620005279E274A374CC4F7A78BB7863752275B3
:103630000278A2758278E275027940796076227606
:10364000C648C078A076C648C078E076C5480078FD
:10365000207708683070010EF170010CB170000A1B
:10366000707020462630C04906252A46FCF7D4FD56
:103670003878B072F8782D21605478793979BB4A5E
:103680001278B273BA4A1278F273BA4A1278327464
:10369000B94A12787274B94A1278B274B84A127878
:1036A000F274B84A12783275B74A12787275B74A0E
:1036B0001278B275B64A1278F275B64A1278327636
:1036C000B54A1278727722462D3251709070A34A13
:1036D00010784021605420464030917881705178B4
:1036E000417050791179019E3170707020464530DB
:1036F000AA492A46FCF790FD994B18784B21605453
:10370000987859781A795B793373F27222464B3282
:103710005170907020465030A1492A46FCF77CFD3C
:10372000204656309F492A46FCF776FD20465C30FD
:103730009D492A46FCF770FD20466230FC492A4626
:10374000FCF76AFDFB48FC49FC4AE6E1A4000020C6
:10375000FC0100205A0000206B080020DF0500203B
:1037600071000020B001002012000020E4010020C0
:1037700042000020B503002001202070F0480078AE
:103780006070F04AD078A070EF484178E1705178CD
:103790002171C1786171ED490978A171EC4909780D
:1037A000E171EC4909782172EB498B88A3731B0AFC
:1037B000E373137823749378637413795279E27402
:1037C000A374E64F7A78BB78637522750278A27588
:1037D0008278E2750279407960762276E048C07896
:1037E000A076E048C078E076DF4800782077086867
:1037F0003070010EF170010CB170000A707020463B
:103800002630FC4906252A46FCF706FD3878B072BA
:10381000F8782D21605478793979F74A1278B273A3
:10382000F64A1278F273F64A12783274F54A127830
:103830007274F54A1278B274F44A1278F274F44A47
:1038400012783275F34A12787275F34A1278B275AB
:10385000F24A1278F275F24A12783276F14A127808
:10386000727722462D3251709070E04A10784021D4
:103870006054204640309178817051784170507981
:103880001179019E3170707020464530E6492A4614
:10389000FCF7C2FCD64B18784B21605498785978C5
:1038A0001A795B793373F27222464B325170907001
:1038B00020465030DD492A46FCF7AEFC2046563003
:1038C000DB492A46FCF7A8FC20465C30D9492A4649
:1038D000FCF7A2FC20466230D7492A46FCF79CFC44
:1038E000D648D749D74A18E1CC01002081000020F2
:1038F0009F0000201E030020170200201B02002052
:103900009B0000208F0000209700002093000020E3
:103910000F0200206D0000208A0000202A000020F5
:10392000F3020020540800200B030020270300208E
:10393000DD0500201302002085000020A3000020E8
:10394000F6010020540000206A080020DE05002057
:1039500070000020A80100200C000020DE010020E3
:103960003C000020B4030020C6010020800000209D
:103970009E0000201D030020160200201A020020D5
:103980009A0000208E000020960000209200002067
:103990000E0200206C00002089000020240000207E
:1039A000ED0200204E0800200503002001202070B9
:1039B0006E48007860706E4AD078A0706D4841788B
:1039C000E17051782171C17861716B490978A171F9
:1039D0006A490978E1716A490978217269498B88D5
:1039E000A3731B0AE37313782374937863741379B6
:1039F0005279E274A374644F7A78BB786375227548
:103A00000278A2758278E275027940796076227632
:103A10005E48C078A0765E48C078E0765D48007861
:103A2000207708683070010EF170010CB170000A47
:103A3000707020462630584906252A46FCF7ECFBD4
:103A40003878B072F8782D21605478793979534AF2
:103A50001278B273524A1278F273524A1278327460
:103A6000514A12787274514A1278B274504A1278DC
:103A7000F274504A127832754F4A127872754F4A72
:103A80001278B2754E4A1278F2754E4A1278327632
:103A90004D4A1278727722462D32517090703B4A0F
:103AA00010784021605420464030917881705178E0
:103AB000417050791179019E317070702046453007
:103AC00042492A46FCF7A8FB314B18784B21605439
:103AD000987859781A795B793373F27222464B32AF
:103AE000517090702046503039492A46FCF794FBBB
:103AF0002046563037492A46FCF78EFB20465C307C
:103B000035492A46FCF788FB2046623033492A466D
:103B1000FCF782FB32483349334A1278029B1A7011
:103B200009785970007848490978605403B0F0BDAD
:103B300021030020DC050020120200208400002068
:103B4000A500002002020020600000206C08002078
:103B5000E0050020BB030020B80100201800002071
:103B6000EA01002048000020B6030020A600002043
:103B700008020020660000206D080020E1050020FA
:103B8000BC030020C00100201E000020F001002026
:103B90004E000020B7030020D80100208300002041
:103BA000A100002020030020190200201D02002097
:103BB0009D00002091000020990000209500002029
:103BC000110200206F0000208C0000203600002031
:103BD000FF020020600800201703002033030020AC
:103BE000740000201502002087000020EA01002058
:103BF00048000020D201002082000020A000002008
:103C00001F030020180200201C0200209C0000203E
:103C10009000002098000020940000201002002056
:103C20006E0000208B00002030000020F9020020F0
:103C30005A080020110300202D03002073000020EB
:103C4000140200208600002001000020B0B50446C8
:103C5000008A002800D0B0BDF1480178002930D09A
:103C6000F04900220A700121E160EF490A70EF4932
:103C70000A70EF490A700270254608350120A060DD
:103C80000020A074EB4A00201070E168032922D0C4
:103C900002292DD0012946D1E4490870E64908607F
:103CA000E6490870E6490870E6480168E648017090
:103CB0000A0EC2700A0C8270090A4170E349E44A94
:103CC0002FE025460835A0680128DBD00028D5D094
:103CD00002282BD071E001201070D44902220A7012
:103CE000D7490870DB48017800290AD0DA4809E092
:103CF000D2490870D2490870D8484078FCF726FFAE
:103D000011E0D7480268D0480270130EC370130C3C
:103D10008370120A4270002901D0CD4A00E0D14AD6
:103D2000CA49FDF7BBF82868022846D1C14A0020DD
:103D30001070E168032918D0022923D001293CD151
:103D4000BA490870BC490860BC490870F949087054
:103D5000F9480168BC4801700A0EC2700A0C8270F2
:103D6000090A4170B949BA4A25E001201070AF49EB
:103D700002220A70EF490870B648017800290AD07B
:103D8000B54809E0AD490870EA490870B348807841
:103D9000FCF7DCFE11E0B2480268AB480270130E7B
:103DA000C370130C8370120A4270002901D0A84A14
:103DB00000E0AC4AA549FDF771F82868032847D10F
:103DC0009C4A00201070E168032918D0022923D0F2
:103DD00001293CD1954908709749086097490870B6
:103DE000E6490870E6480168974801700A0EC270FB
:103DF0000A0C8270090A41709449954A25E0012015
:103E000010708A4902220A70DC49087091480178D2
:103E100000290AD0904809E088490870D7490870FD
:103E20008E48C078FCF792FE11E08D480268864803
:103E30000270130EC370130C8370120A42700029B3
:103E400001D0834A00E0874A8049FDF727F82868B7
:103E5000042846D1774A00201070E168032918D061
:103E6000022923D001293CD17049087072490860A9
:103E700072490870E9490870E948016872480170A0
:103E80000A0EC2700A0C8270090A41706F49704AAA
:103E900025E001201070654902220A70DF49087090
:103EA0006C48017800290AD06B4809E06349087022
:103EB000DA49087069480079FCF748FE11E0684863
:103EC000026861480270130EC370130C8370120AEB
:103ED0004270002901D05E4A00E0624A5B49FCF76B
:103EE000DDFF286805284ED1524900200870E2689D
:103EF000032A1AD0022A27D0012A43D14E4908604A
:103F0000DD490870494908704C490870DB49087060
:103F1000DB4801684C4801700A0EC2700A0C8270BE
:103F2000090A417049494A4A2AE0404A022313706B
:103F3000D14A107001200870D049087045480178B6
:103F400000290DD044480CE0CC490870CA49012230
:103F50000A703A49087041488079FCF7F7FD11E092
:103F60003F48026838480270130EC370130C837008
:103F7000120A4270002901D0354A00E0394A33491B
:103F8000FCF78CFF2868062872D12A4900200870A7
:103F9000E268032A1AD0022A27D0012A68D12649CA
:103FA0000860B84908702149087024490870B6496A
:103FB0000870B6480168244801700A0EC2700A0CE5
:103FC0008270090A41702149214A4FE0174A0223B1
:103FD0001370AC4A107001200870AB4908701D487E
:103FE000017800290DD01C480CE0A7490870A549AC
:103FF00001220A70114908701848C079FCF7A6FD23
:1040000036E01748026810480270130EC370130C94
:104010008370120A4270002926D00D4A25E0C0465E
:1040200032080020280700204C08002066080020E5
:10403000E8050020E205002070080020B9030020F8
:10404000FD0600202402002075000020717C00087D
:10405000657C0008670800207C0000202B070020FA
:10406000E80200206B7C0008EE4AF049FCF716FFDE
:10407000286807284ED1E64900200870E268032A24
:104080001AD0022A27D0012A43D1EB490860EB4914
:104090000870DD490870E6490870E9490870E94888
:1040A0000168DF4801700A0EC2700A0C8270090AAA
:1040B0004170DE49DC4A2AE0D34A02231370DF4A0A
:1040C000107001200870DE490870D248017800297C
:1040D0000DD0D2480CE0DA490870D84901220A70A4
:1040E000D3490870D348007AFCF730FD11E0CA4884
:1040F0000268CB480270130EC370130C8370120A4F
:104100004270002901D0C84A00E0C64AC749FCF7FE
:10411000C5FE286808286FD1BD4900200870E268F4
:10412000521E032A68D8C0467A4412795200974436
:1041300005293842FE06002038020020B1490870E7
:10414000C1490870C449C54A0A60BB490860AE4904
:104150000870C3490870AD490870B5490870BB497B
:104160000870C0480168AE4801700A0EC2700A0C9F
:104170008270090A4170AD49AB4A3BE0FF0600205E
:1041800064020020B14908709F4901220A70A849C1
:104190000870B0480078002800D11AE102F07AFBDC
:1041A0002AE099480221017002F074FBA8480078C7
:1041B000FCF7CCFC20E0944A03231370A24A107051
:1041C00001200870A149087092480178002901D0A7
:1041D000924800E09048026891480270130EC37044
:1041E000130C8370120A4270002901D08E4A00E03D
:1041F0008C4A8E49FCF752FE2868092800D086E0D8
:10420000834900200870E268521E032A00D97DE02D
:104210007A44127952009744053B4A540007002023
:1042200078020020904908709049087092490870FF
:1042300092490870924908708D4908707149087058
:104240008549864A0A607C4908606F4908708D4933
:1042500008708D49087076490870864908708B4847
:1042600001686F4801700A0EC2700A0C8270090A58
:1042700041706E496C4A47E0FC05002001070020B0
:10428000A4020020ED05002002070020CC0200203F
:10429000784908705C4901220A70654908706D48C8
:1042A0000078002800D197E002F088FB2EE0564805
:1042B0000221017002F082FB65480078FCF746FCA1
:1042C00024E0694A1070694A1070694A10704E48BB
:1042D0000322027001200870664908704D48017879
:1042E000002901D04D4800E04B4802684C4802705C
:1042F000130EC370130C8370120A4270002901D090
:10430000494A00E0474A4949FCF7C8FD28680A289D
:1043100000D0A0E4F94A00201070E168032917D00A
:10432000022922D0012900D095E4F0490870F14912
:1043300008603F490870564908705B480168384872
:1043400001700A0EC2700A0C8270090A417054E0B2
:1043500001201070E54902220A704D4908702D486D
:104360000178002913D02D4812E0314A0121117043
:10437000474A1070DD4A1378002B1BD01170DD48BE
:104380000068022838D880004649085831E02248A1
:10439000026823480270130EC370130C8370120A54
:1043A0004270002901D0204A00E01E4A1F49FCF754
:1043B00075FDB0BD374B1B78D74CE35C022B0ED09C
:1043C000012B12D0002BD9D11170CA490860344892
:1043D0000FE0FCF7DBFC0FE7FCF7D8FC96E7117069
:1043E000C448022101602C4803E01170C1480160FB
:1043F0002A480068BB490860BA480C490A4AFCF7D9
:104400004DFDB0BD4C08002066080020E8050020E6
:10441000E205002067080020E80200207C00002060
:10442000750000206B7C0008657C0008717C00082A
:10443000B90300202B07002070080020EB050020A6
:1044400003070020D0020020EA0500200407002016
:10445000B203002085080020200200202020202018
:10446000B0030020D4020020F4050020EE05002057
:10447000EC05002005070020F1050020F3050020D1
:10448000F2050020B1030020E9050020D802002039
:10449000FC06002001000020E4020020E0020020D1
:1044A000DC020020B87B000828020020F0B583B0B1
:1044B00004460A98002804D0218A0143218203B0CF
:1044C000F0BD16460D46089F002002902082012B69
:1044D00026D18448824901608349002008708349BD
:1044E0000978834A12780A4303D1E060A068401E2D
:1044F000A060FCF74FF8012F14D0012E26D1794887
:10450000774901607A480078002837D0794800213F
:10451000016079480178491C0170012D19D0CAE069
:10452000012FEAD16F486E4901606F490020087081
:104530006E4909786E4A12780A4303D1E060A06898
:10454000401CA060FCF7BAF9012ED8D0012D00D094
:10455000B1E06D4D2878002800D192E06B480678D4
:104560006B4802786B490F78002E029B52D00323D0
:104570003340042E13D20025012626E05F4E30780A
:1045800000282CD000F0F0F8002030705749087057
:104590005B4908705B4908700121A16021E0009728
:1045A0000192FC210E4000255B4F29467818427885
:1045B000AA1885785219C578521900791518091D5D
:1045C0008E42F3D14E1C019A009F002B15D0384625
:1045D00051498F5DED19012B07D107460DE0E068C9
:1045E000401CE060012D66D1B3E771184E78AD191B
:1045F000022B074601D089786D18A9B2474B4B436F
:10460000190C6B1A9BB25B085918890961234B433B
:10461000EB1A3D4D4248037042490B72CB718F71CA
:10462000029848710A71C8703F48007808703F4886
:10463000007848703E48007888703E48007848729C
:104640003D48007888723D480B22FBF7E5FD3C4869
:104650000178002902D13B4901220A700026067028
:104660007D20C30038482F490B22FEF719FE37483A
:1046700001210170364801702E70364806703648A8
:104680000670364816490160164801601A49002034
:1046900008701A490870E168491EE16013490A78F8
:1046A000002A01D0521E0A7011490A78002A02D04D
:1046B000104A10600870A0680A2801DD012002E09D
:1046C000002801DC0A20A060E0680A2801DB09203C
:1046D00003E0002800DDF2E60120E06003B0F0BD59
:1046E000202020202C080020BA030020660800208B
:1046F00028070020700800204C080020E205002058
:10470000290700202A07002008070020A200002017
:1047100003000020040000202B070020D1510000DE
:10472000B803002078080020070000200B000020BC
:1047300009000020020000200A00002038080020A4
:10474000F605002044080020240900206808002005
:10475000F8050020FA050020F905002020020020BD
:10476000FEE7704770470000F0B587B0CD48CE49EE
:104770000160CE48CE49CF4AFCF790FBCE480121DC
:1047800001707D20C00005900691C80603900021AD
:10479000C8430490C9480078C94C2278002A2FD019
:1047A00000282DD1C74801240470C7480068C74EAF
:1047B0007070C74F38460399FCF7E0FBFF25204691
:1047C0002946324602F0F8F93846314603F0D4F86B
:1047D00004982946324602F0EFF9BE480778B948F6
:1047E0000378B948006802900022002F154640D097
:1047F00003253D40042F10D20021002D22D12CE0B2
:1048000043424341002A069A00D01A46002A63D147
:104810002170B1480278012095E00193FC210F40FE
:1048200000210C4630194378C9188378C918C37819
:10483000C91800790918241DA742F3D1641C019BF3
:10484000002D0AD0375DC919012D06D0A41966784C
:104850008919022D01D0A47809198CB29F4D6543A6
:104860002C0C0D1BADB26D082C19A40961256543F4
:104870004D1B9B4805709B490D72CD710298887144
:104880004A710B71CA709848007808709748007890
:104890004870974800788870964800784872964823
:1048A0000078887295480B22FBF7B6FC9448017893
:1048B000002902D1934901220A7000240470924811
:1048C00088490B22059BFEF7EBFC90480121017003
:1048D0007B48047079480078414241417E4A127811
:1048E000002A30D000282ED1764902200870764860
:1048F0000068764EB070764F38460399FCF73EFB61
:104900000124FF2520462946324602F055F9384653
:10491000314603F031F804982946324602F04CF94A
:104920006C4807786748037867480068029000225F
:10493000002F15463DD003253D40042F0DD2002108
:10494000002D1FD129E0002A069A00D00A46002A2D
:1049500062D1614900220A705EE00193FC210F40A0
:1049600000210C4630194378C9188378C918C378D8
:10497000C91800790918241DA742F3D1641C019BB2
:10498000002D0AD0375DC919012D06D0A41966780B
:104990008919022D01D0A47809198CB24F4D6543B5
:1049A0002C0C0D1BADB26D082C19A40961256543B3
:1049B0004D1B4B4805704B490D72CD7102988871A3
:1049C0004A710B71CA7048480078087047480078EF
:1049D00048704748007888704648007848724648D2
:1049E0000078887245480B22FBF716FC4448017892
:1049F000002902D1434901220A7000240470424870
:104A000038490B22059BFEF74BFC40480121017001
:104A100031480470294800783D4B1978002932D07C
:104A2000002830D127480324047027480068274E07
:104A3000F070274F38460399FCF7A0FA0120FF25B4
:104A400002902946324602F0B7F83846314602F065
:104A500093FF04982946324602F0AEF81D480578C7
:104A600018480778184803680020002D024600D136
:104A70007FE001972C402746042D4DD20021029C57
:104A8000002F5ED168E0424242410029069900D0E1
:104A90001146002900D09EE0002119701D480278BF
:104AA0000120D0E02C0800202020202075000020CC
:104AB000717C0008657C0008FB050020B90300201C
:104AC000FD060020D4090020700800202B070020DC
:104AD00000F00008A2000020FE060020D1510000D6
:104AE000B803002078080020070000200B000020F9
:104AF00009000020020000200A00002038080020E1
:104B0000F605002044080020240900206808002041
:104B1000FF060020000700200293FC210D40002129
:104B20000C4632195378C9189378C918D378C91824
:104B300012798918241DA542F3D1641C029B002F11
:104B40000AD0325D8918012F06D0A21954780919AC
:104B5000022F01D0927889188AB2E44C5443220C77
:104B60008C1AA4B26408A2189209612454430A1B47
:104B7000019FDF490A70DF490A72CA718B7148715F
:104B80000F71C870DC4800780870DC480078487005
:104B9000DB4800788870DB4800784872DA48007893
:104BA0008872DA480B22FBF737FBD94801780029D5
:104BB00002D1D84901220A7000240470D648CD4998
:104BC0000B22059BFEF76CFBD44801210170D448F1
:104BD0000470D448007841424141D34A1278002AF7
:104BE00031D000282FD1D14904200870D048007856
:104BF000D04E70713071D04F38460399FCF7BEF932
:104C00000124FF2520462946324601F0D5FF3846CB
:104C1000314602F0B1FE04982946324601F0CCFF3D
:104C2000C6480778C1480378C1480068029000224E
:104C3000002F15463DD003253D40042F0DD2002105
:104C4000002D1FD129E0002A069A00D00A46002A2A
:104C500062D1B54900220A705EE00193FC210F4049
:104C600000210C4630194378C9188378C918C378D5
:104C7000C91800790918241DA742F3D1641C019BAF
:104C8000002D0AD0375DC919012D06D0A419667808
:104C90008919022D01D0A47809198CB2934D65436E
:104CA0002C0C0D1BADB26D082C19A40961256543B0
:104CB0004D1B8F4805708F490D72CD710298887118
:104CC0004A710B71CA708C48007808708B48007864
:104CD00048708B48007888708A48007848728A4803
:104CE0000078887289480B22FBF796FA8848017889
:104CF000002902D1874901220A70002404708648E5
:104D00007C490B22059BFEF7CBFA844801210170F8
:104D10008548047083480078894B1978002930D081
:104D200000282ED1814906200870814C2068814ED0
:104D3000B071814F38460399FCF720F90120FF2517
:104D400002902946324601F037FF3846314602F0DC
:104D500013FE04982946324601F02EFF7748077863
:104D60007248037824680022002F154641D003259D
:104D70003D40042F01940FD200210298002D20D134
:104D80002AE0424242410029069800D010460028FD
:104D900065D10020187062E00293FC210F400021D1
:104DA0000C4630194378C9188378C918C378C918D4
:104DB00000790918241DA742F3D1601C029B002D25
:104DC0000AD0375CC919012D06D084196678891973
:104DD000022D01D0A47809198CB2444D65432C0CE6
:104DE0000D1BADB26D082C19A409612565434D1B3F
:104DF000019C3F4805703F490D72CD718C714A711D
:104E00000B71CA703C48007808703C4800784870C4
:104E10003B48007888703B48007848723A480078F0
:104E200088723A480B22FBF7F7F9394801780029D4
:104E300002D1384901220A700024047036482D49F5
:104E40000B22059BFEF72CFA3449012008703C49DF
:104E50000C7037490968012901D13A490870314875
:104E60000078394B1978002930D000282ED12F49ED
:104E7000072008702E4800682E4EF0712E4F3846DD
:104E80000399FCF77BF80124FF252046294632468A
:104E900001F092FE3846314602F06EFD0498294634
:104EA000324601F089FE25480778204803782048DB
:104EB000006802900022002F154675D003253D4062
:104EC000042F45D20021002D57D161E042424241DA
:104ED0000029069900D01146002900D097E0002152
:104EE00019701A4802780120C8E0C046D15100006C
:104EF000B803002078080020070000200B000020E5
:104F000009000020020000200A00002038080020CC
:104F1000F60500204408002024090020680800202D
:104F2000FF060020B903002000070020D40900205C
:104F3000700800202B07002000F00008A2000020CD
:104F40000107002069080020020700200307002055
:104F50000193FC210F4000210C4630194378C918F9
:104F60008378C918C378C91800790918241DA74285
:104F7000F3D1641C019B002D0AD0375DC919012DA6
:104F800006D0A41966788919022D01D0A4780919D0
:104F90008CB2F64D65432C0C0D1BADB26D082C196F
:104FA000A409612565434D1BF1480570F1490D7257
:104FB000CD71029888714A710B71CA70EE48007801
:104FC0000870EE4800784870ED4800788870ED4829
:104FD00000784872EC4800788872EC480B22FBF7A6
:104FE0001BF9EB480178002902D1EA4901220A7035
:104FF00000240470E848DF490B22059BFEF750F9B6
:10500000E64801210170E6480470E6480078414214
:105010004141E54A1278002A30D000282ED1E349D8
:1050200008200870E2480068E24E3072E24F3846CD
:105030000399FBF7A3FF0124FF25204629463246AA
:1050400001F0BAFD3846314602F096FC0498294634
:10505000324601F0B1FDD9480778D4480378D448E6
:10506000006802900022002F15463DD003253D40E8
:10507000042F0DD20021002D1FD129E0002A069A0D
:1050800000D00A46002A62D1C74900220A705EE0B9
:105090000193FC210F4000210C4630194378C918B8
:1050A0008378C918C378C91800790918241DA74244
:1050B000F3D1641C019B002D0AD0375DC919012D65
:1050C00006D0A41966788919022D01D0A47809198F
:1050D0008CB2A64D65432C0C0D1BADB26D082C197E
:1050E000A409612565434D1BA1480570A1490D72B6
:1050F000CD71029888714A710B71CA709E48007810
:1051000008709E48007848709D48007888709D48D7
:10511000007848729C48007888729C480B22FBF704
:105120007BF89B480178002902D19A4901220A7034
:105130000024047098488F490B22059BFEF7B0F8B5
:1051400096480121017098480470964800789C4B5D
:105150001978002933D0002831D19A480278944830
:105160000068944988541A2A00D1C876924F38466C
:105170000399FBF703FF0124FF258E4E20462946A5
:10518000324601F019FD3846314602F0F5FB04982D
:105190002946324601F010FD88480778894803788F
:1051A0008348006802900022002F154641D0032555
:1051B0003D40042F11D20021002D23D12DE0424289
:1051C00042410029069900D01146002966D10021EC
:1051D00019707D4802780120BCE00193FC210F404A
:1051E00000210C4630194378C9188378C918C37850
:1051F000C91800790918241DA742F3D1641C019B2A
:10520000002D0AD0375DC919012D06D0A419667882
:105210008919022D01D0A47809198CB2F84D654383
:105220002C0C0D1BADB26D082C19A409612565432A
:105230004D1BF4480570F4490D72CD7102988871C8
:105240004A710B71CA70F14800780870F048007814
:105250004870F04800788870EF4800784872EF484E
:1052600000788872EE480B22FAF7D6FFED480178F5
:10527000002902D1EC4901220A7000240470EB4895
:10528000E1490B22059BFEF70BF8E948012101706B
:10529000E8480470EA480470D3480078414241412C
:1052A000E54A1278002A55D0002853D1D14C206805
:1052B000E4490A78002A05D000220A700A2102F087
:1052C000A1FB2060E0490A78002A05D000220A707C
:1052D000C10F401840102060DC490A78002A05D030
:1052E00000220A70052102F08DFB2060D349097865
:1052F000C14A5054232905D12423D0548918087356
:10530000C8728872B94F38460399FBF737FE0124FB
:10531000FF25B94E20462946324601F04DFC38465D
:10532000314602F029FB04982946324601F044FC3C
:10533000B2480078C1490B78AE490F6800220028B6
:10534000154671D00325054004283FD20021002DC9
:1053500053D15DE0002A069A00D00A46002A00D008
:1053600096E0B54900220A7092E0C046D151000093
:10537000B803002078080020070000200B00002060
:1053800009000020020000200A0000203808002048
:10539000F6050020440800202409002068080020A9
:1053A00002070020B903002003070020D4090020D1
:1053B000700800202B07002000F00008A200002049
:1053C00004070020B2030020050700200197029384
:1053D000FC21084000210C4637197B78C918BB789E
:1053E000C918FB78C9183B79C918241DA042F3D10C
:1053F000641C029B019F002D0AD0305D0918012D0D
:1054000006D0A01944780919022D01D08078091816
:1054100088B27B4C4443200C0C1AA4B264082018B8
:105420008009612444430D1B7648057076490D724E
:10543000CD718F714A710B71CA7074480078087011
:105440007348007848707348007888707248007814
:10545000487272480078887271480B22FAF7DCFEB5
:1054600070480178002902D16F4901220A70002496
:1054700004706E4864490B22059BFDF711FF6C48D0
:10548000012101706C48047071480470564800781E
:10549000414241416F480078002800D006910698AB
:1054A000002800D09EE06C480078514908705148AF
:1054B0000068022806D0012807D000280AD14E48EB
:1054C000684904E04C48654901E04B486449FF22C3
:1054D000FAF7A2FEDA4F38460399FBF74FFD012495
:1054E000FF25454E20462946324601F065FB3846E9
:1054F000314602F041FA04982946324601F05CFB3D
:105500003E4807783A4803783A48006806900022F7
:10551000002F154633D003253D40042F03D2002130
:10552000002D15D11FE00493FC210F4000210C46F3
:1055300030194378C9188378C918C378C918007915
:105540000918241DA742F3D1641C049B002D0AD026
:10555000375DC919012D06D0A41966788919022D65
:1055600001D0A47809198CB2254D65432C0C0D1B74
:10557000ADB26D082C19A409612565434D1B214866
:10558000057021490D72CD71069888714A710B71B1
:10559000CA701E48007808701D48007848701D4881
:1055A000007888701C48007848721C48007888721F
:1055B0001B480B22FAF730FE1A480178002902D165
:1055C000194901220A700024047018480E490B2260
:1055D000059BFDF765FE1648012101700248047025
:1055E0001C48047007B0F0BDB903002000F00008AB
:1055F000D4090020700800202B070020A200002002
:10560000D1510000B80300207808002007000020D6
:105610000B00002009000020020000200A000020EA
:1056200038080020F6050020440800202409002046
:10563000680800200407002005070020B2030020AE
:10564000E8050020F1050020F3050020F205002008
:10565000E9050020FC06002001000020A700002032
:10566000FD050020BD030020F0B581B005460124F2
:105670002046FBF74DFD052D21D86FB211A0C25D6C
:105680000520050721022846FCF7C9F80FA0C25DD6
:10569000104E08213046FCF7C2F80FA0C25D402131
:1056A0003046FCF7BCF80EA0C25DE1022846FCF7CC
:1056B000B6F80DA0C25D20213046FCF7B0F801B06D
:1056C000F0BDC0460100010101010000010100011F
:1056D000010100000004005001010100010100006F
:1056E00001010101000100000101010101000000B0
:1056F000F0B587B0514C002520462946FDF79CFEA9
:10570000FBF78EFE1E2005900220019003900420DE
:10571000049001260696029503A802A9FBF70AFD4C
:10572000FBF762FD3602605D401C605560194178F0
:10573000491C41708178491C8170C178491CC17035
:105740000179491C01714179491C41718179491CD8
:105750008171C179491CC171017A491C0172417A78
:10576000491C4172817A491C8172C17A491CC172FB
:10577000017B491C0173417B491C4173817B491C9E
:105780008173C17B491CC1731035AE42CBD1FBF78D
:1057900047FE002706972A4D05950198039002972A
:1057A00003A802A9FBF7C6FC207800280CD0E25D14
:1057B000012000232946FBF757FD7F1C08352046B2
:1057C000FAF708FD8742F2D3FBF70EFD0020215CBB
:1057D000491E215421184A78521E4A708A78521E56
:1057E0008A70CA78521ECA700A79521E0A714A79A2
:1057F000521E4A718A79521E8A71CA79521ECA7122
:105800000A7A521E0A724A7A521E4A728A7A521EC4
:105810008A72CA7A521ECA720A7B521E0A734A7B65
:10582000521E4A738A7B521E8A73CA7B521ECA73E7
:1058300010308642CBD107B0F0BDC046DD04002059
:1058400000F00008F0B585B02038462800D987E17F
:105850000124800004A108582246214623462546FB
:105860002646274604948746035B0008615B0008D0
:10587000615B0008615B0008615B0008615B000818
:10588000615B0008615B0008615B0008615B000808
:10589000615B0008615B0008615B000899590008C2
:1058A000AB590008615B0008BF590008CD590008DA
:1058B000D5590008E1590008F15900088559000838
:1058C000FD590008035A00080B5A0008135A000833
:1058D000615B0008615B0008615B0008615B0008B8
:1058E000615B0008615B0008615B00081F5A0008EB
:1058F000275A0008375A0008475A0008575A000824
:10590000615A0008615B0008675A0008775A00086E
:10591000855A0008615B00088F5A0008615B000827
:105920009D5A0008A75A0008B75A0008615B000892
:10593000C75A000885590008D75A00088B59000833
:105940008B590008615B0008615B0008615B00081F
:10595000615B0008615B0008615B0008615B000837
:10596000615B0008615B0008615B0008E75A0008A2
:10597000ED5A0008F55A0008655B00086F5B0008E7
:105980007B5B00080022214645E0002122460B46B1
:105990000D460E460F46B3E00020049022462146F5
:1059A0002346254626462746ABE0002022462146D0
:1059B000234625462646274604940446A1E00022B5
:1059C0001146134615461646174699E00021224611
:1059D0000B4692E00022114623461546164604E087
:1059E000002211461346154626462746049288E0B3
:1059F000002122460B462546264639E00022214654
:105A000005E000221146134677E0002211461346B6
:105A100024E00022114613461546264650E0002297
:105A2000114613464AE00023224621461D461E46E3
:105A30001F46049365E000252246214623462E4654
:105A4000274604955DE0002122460B460D460E4692
:105A50002746049155E000222146234615462EE0B4
:105A60000022214629E0002122460B4625460E460B
:105A70000F46049145E0002622462146234625464E
:105A800037463DE0002122460B460D4636E0002514
:105A90002246214623462E462F4631E00023224649
:105AA0002146254603E00023224621461D461E4688
:105AB0002746049325E00022114623462546164634
:105AC000174604921DE0002622462146234625461D
:105AD0002746049615E000252246214623462E46F9
